:100000000C9434000C9451000C9451000C94510049
:100010000C9451000C9451000C9451000C9451001C
:100020000C9451000C9451000C9451000C9451000C
:100030000C9451000C9451000C9451000C945100FC
:100040000C9453000C9451000C9451000C945100EA
:100050000C9451000C9451000C9451000C945100DC
:100060000C9451000C94510011241FBECFEFD8E026
:10007000DEBFCDBF13E0A0E0B1E0ECE1F2E102C0F1
:1000800005900D92A039B107D9F723E0A0E9B3E0BC
:1000900001C01D92A73BB207E1F70E9452040C94E5
:1000A0000C090C9400001F921FB61F9211248F930D
:1000B0009F93AF93BF938091900390919103A091F0
:1000C0009203B09193030196A11DB11D80939003FB
:1000D00090939103A0939203B0939303BF91AF9138
:1000E0009F918F911F901FBE1F90189514BC83E0A5
:1000F00085BD81E080936E0078940895F8946091B6
:10010000900370919103809192039091930378945E
:1001100008950F931F93CF93DF93209100013091A7
:100120000101C2E4D1E0FE0180E090E08C012817DB
:10013000390721F040815181040F151F0196329635
:1001400085309105A1F70E948805B8010E9412052B
:10015000609100017091010120E030E0A901621777
:10016000730769F0E881F9814E0F5F1F84179507C7
:1001700034F4C901DF91CF911F910F9108952F5F42
:100180003F4F22962530310551F780E090E0F2CFC5
:100190000F931F93CF93DF93CDB7DEB764970FB65E
:1001A000F894DEBF0FBECDBFE2E0F1E020E030E02A
:1001B0008901448155814817590761F4D801AA0F74
:1001C000BB1FAE014F5F5F4FA40FB51F2D933D9333
:1001D0000F5F1F4F2F5F3F4F36962A30310549F78B
:1001E000029799F480919403FE0180FD329601817B
:1001F0001281C80164960FB6F894DEBF0FBECDBF62
:10020000DF91CF911F910F9108950115110589F389
:100210000E948805B8010E941205880F991F8C0F53
:100220009D1FFC01E4CFCF93DF9300D000D0CDB76A
:10023000DEB78B839C8369837A830E94C20240E08D
:1002400060E08B819C810E94BA0269817A818B81F6
:100250009C810F900F900F900F90DF91CF910C9495
:10026000FF026F927F928F929F92AF92BF92CF9236
:10027000DF92EF92FF920F931F93CF93DF93CDB74F
:10028000DEB72A970FB6F894DEBF0FBECDBF6C0164
:100290005B012D833E834F8358870E947E006983D4
:1002A0007A838B839C83F50101900020E9F73197D5
:1002B0003F016A187B0820E129871A8645018E1ABA
:1002C0009F0A0E947E0029813A814B815C81621BDA
:1002D000730B840B950B2D813E814F8158856217DE
:1002E000730784079507A8F02A960FB6F894DEBF27
:1002F0000FBECDBFDF91CF911F910F91FF90EF9077
:10030000DF90CF90BF90AF909F908F907F906F9035
:100310000895C6010E94C20240E060E0C6010E944A
:10032000BA0209851A8511950195110980E1E82E17
:10033000F12C49855A85E41AF50A60E2061517057D
:1003400020F4F501E00FF11F6081C6010E94FA025E
:100350000F5F1F4F0E151F0581F789859A8501973D
:1003600089879A87881599051CF420E129871A86C0
:100370003FEF47E853E1315040405040E1F700C0C3
:1003800000009FCF0F931F93CF93DF93CDB7DEB7BE
:100390002C970FB6F894DEBF0FBECDBF8B879C871E
:1003A0006D837E832F83388749875A870E947E001A
:1003B00069837A838B839C8301E011E00E947E0035
:1003C00029813A814B815C81621B730B840B950BF5
:1003D0002F81388549855A856217730784079507E9
:1003E00058F02C960FB6F894DEBF0FBECDBFDF914C
:1003F000CF911F910F9108958B859C851115C9F0A0
:100400000E94C20240E060E08B859C850E94BA0297
:100410006D817E818B859C850E94FF0210272FEFC6
:1004200039E648E1215030404040E1F700C000008B
:10043000C5CF0E94C202F2CF0F931F93CF93DF93D9
:100440008C01EB018D818F938C818F938B818F93A6
:100450008A818F9389818F9388818F9384E691E03D
:100460009F938F930E9496058A819B812DB73EB7FB
:10047000285F3F4F0FB6F8943EBF0FBE2DBF8130AF
:100480009105D9F08230910529F1892B89F4688191
:100490007981C8010E94130134E58DEC9DE223E0CF
:1004A0003150804090402040D9F700C000C000008B
:1004B000DF91CF911F910F9108956881798120E29A
:1004C0003EE440E050E0C801DF91CF911F910F91D1
:1004D0000C9431016881798120E23EE440E050E0F3
:1004E000C801DF91CF911F910F910C94C201209A06
:1004F000611511F0289A08952898089561E00C94E8
:10050000770260FF11C05C9A61FF10C05D9A62FFC4
:100510000FC05E9A63FF0EC05F9A5B9A85E08A9572
:10052000F1F700005B9808955C98EECF5D98EFCFEF
:100530005E98F0CF5F98F1CFCF93DF9300D00F920A
:10054000CDB7DEB789839A836B8362956F700E9403
:1005500081026B8189819A810E94810287EC90E0FF
:100560000197F1F700C000000F900F900F90DF91FE
:10057000CF9108954295440F440F407C6058640F1A
:100580000C949C0261E00E949C028FE39FE1019722
:10059000F1F700C00000089562E00E949C028FE322
:1005A0009FE10197F1F700C000000895CF93DF931A
:1005B00000D00F92CDB7DEB789839A836B836295A3
:1005C0006F700E9481028FE19EE40197F1F700C0F5
:1005D00000006B8189819A810E9481028FE19EE4F3
:1005E0000197F1F700C000000F900F900F90DF917E
:1005F000CF9108955A9A0E94D6025A9808950F935F
:100600001F93CF93DF9300D000D0CDB7DEB789839F
:100610009A836B837C8300E010E0EB81FC81808116
:10062000811109C00F900F900F900F90DF91CF9123
:100630001F910F9108958B819C8101968B839C83E0
:100640000031110529F460EC89819A810E949C0295
:10065000EB81FC81629189819A810E94FA020F5F8D
:100660001F4FDBCF0F931F93CF93DF9300D000D0AA
:10067000CDB7DEB789839A838A01660F660F660F4E
:10068000687360640E949C020B831C830B811C8135
:10069000085F1F4FEB81FC816191EB83FC838981B3
:1006A0009A810E94FA028B819C818017910791F7B1
:1006B0000F900F900F900F90DF91CF911F910F919E
:1006C00008950F931F93CF93DF93CDB7DEB7A09715
:1006D0000FB6F894DEBF0FBECDBF8C01529A539A6D
:1006E000549A559A569A579A209A5B985A982898ED
:1006F0002FEF80E792E0215080409040E1F700C06A
:10070000000063E0C8010E9481028FE19EE401972E
:10071000F1F700C0000063E0C8010E9481028FE889
:1007200091E00197F1F700C0000063E0C8010E946A
:10073000810262E0C8010E94810268E2C8010E9451
:100740009C026CE0C8010E949C02C8010E94C20287
:1007500066E0C8010E949C0295E89A95F1F70000B6
:1007600088E0ECE4F1E0DE01599601900D928A9563
:10077000E1F7AE01475E5F4F60E0C8010E943203BF
:1007800088E0E6E8F3E0DE01519601900D928A954B
:10079000E1F7AE014F5E5F4F61E0C8010E94320396
:1007A00088E0E4E5F1E0DE01199601900D928A956A
:1007B000E1F7AE01475F5F4F62E0C8010E9432037C
:1007C00088E0ECE5F1E0DE01119601900D928A954A
:1007D000E1F7AE014F5F5F4F63E0C8010E94320353
:1007E000A0960FB6F894DEBF0FBECDBFDF91CF91BC
:1007F0001F910F910895FC011082118212821382C1
:100800000C946103CF93C82F8A3029F460E070E024
:100810008DE00E9402048091C00085FFFCCFC09350
:10082000C60080E090E0CF9108958091C00087FFDE
:10083000FCCF8091C60090E008951092C50083E33C
:100840008093C400E0ECF0E080818D7F808386E0BF
:100850008093C20088E18093C10008950F931F9395
:10086000CF93DF9303EA13E082E0F801838382E011
:1008700094E080879187C5E9D3E081E08B8385E1AF
:1008800094E08A879B870E941D040093B303109312
:10089000B403C093B103D093B203DF91CF911F9102
:1008A0000F910895CDB7DEB72E970FB6F894DEBF3F
:1008B0000FBECDBF0E942E048E01095F1F4FC801DD
:1008C0000E94FB03C8010E946103C8010E947E02CE
:1008D000C8010E94C2020E94760086B590E00E9484
:1008E0008D058AE891E00E94AC058CEA91E00E94B7
:1008F000AC058AE891E00E94AC058DEC91E00E9485
:10090000AC058AED91E00E94AC0583EF91E00E9476
:10091000AC0564E072E0C8010E9413012FEF8BE781
:1009200092E9215080409040E1F700C00000C801EA
:100930000E94C20264E172E0C8010E9413012FEF1D
:1009400087EA91E6215080409040E1F700C0000026
:100950000B871C8796E0D92E7E012FEFE21AF20A50
:100960000E9489008C010E94C800D89EF001D99E87
:10097000F00D1124EE5FFE4FD7018D2D01900D92E9
:100980008A95E1F781E292E00E94AC0586E392E06D
:100990009F938F930E9496050F900F90ED86FE8691
:1009A00003301105C9F104301105C9F101301105F9
:1009B00041F081E492E00230110529F48EE692E0E4
:1009C00002C088E592E00E94AC05F801EE0FFF1F1F
:1009D000EE5BFE4F81818F9380818F9381EB92E05C
:1009E0009F938F930E9496056D857E858B859C8550
:1009F0000E941C0200930001109301018091940356
:100A00008F5F8093940381EC92E00E94AC050F907D
:100A10000F900F900F90A4CF89E892E0D4CF8FE988
:100A200092E0D1CF97FB072E16F4009407D077FD04
:100A300009D00E94260507FC05D03EF490958195CB
:100A40009F4F0895709561957F4F0895AA1BBB1B1A
:100A500051E107C0AA1FBB1FA617B70710F0A61BBE
:100A6000B70B881F991F5A95A9F780959095BC01DF
:100A7000CD010895AAE0B0E0E0E4F5E00C94B408FC
:100A800089879A87FC0160817181828193810097B7
:100A90007040604021F464E279ED8BE597E02DE150
:100AA00033EF41E050E00E94720829833A834B8380
:100AB0005C839B01AC01A7EAB1E40E9491086D83BD
:100AC0007E838F839887ACEEB4EF29813A814B8186
:100AD0005C810E949F082D813E814F815885260FA1
:100AE000371F481F591FC901DA01B7FF03C001971B
:100AF000A109B048E985FA8580839183A283B383F5
:100B00009F772A96E2E00C94D0080E943A05089557
:100B10008EE391E00E943A05089580933E01909300
:100B20003F0110924001109241010895A0E0B0E011
:100B3000ECE9F5E00C94B408AE014B5F5F4FFA01AD
:100B400061917191AF018091B3039091B4030E94C0
:100B5000D805E2E00C94D0080F931F93CF93DF9356
:100B6000E091B303F091B4032381EC0100E010E0C5
:100B700021FD0EC00FEF1FEFC801DF91CF911F9134
:100B80000F91089521960995892B11F00FEF1FEF12
:100B900088816091B3037091B403DB011896ED91E5
:100BA000FD918111EFCF8AE00995892B29F3E2CFDE
:100BB000ACE0B0E0EEEDF5E00C94A7085C016B0151
:100BC0007A01FC0116821782838181FFD3C12AE05A
:100BD000522EF5012381F60123FD859123FF81919A
:100BE0006F01811509F42CC1853239F423FD9591EB
:100BF00023FF91916F01953229F4B50190E00E9495
:100C0000D307E7CF30E0712C00E010E0103210F590
:100C10009B32C9F050F49032B9F09332C9F09E3251
:100C200061F516FD0DC1106405C09D3279F0903359
:100C300099F41160F60123FD959123FF91916F01C5
:100C40009111E4CF23C012601460F4CF1860F2CF8A
:100C50001061F0CF17FD1AC080ED890F8A30F8F6C9
:100C600016FF05C0759C800D1124782EE3CF059DDD
:100C7000800D1124082F1062DDCF9C3611F410680E
:100C8000D9CF9C3409F440C09836A1F2892F8F7DCA
:100C900085548330D8F1933609F45FC0933709F453
:100CA0006AC0933509F476C0943619F0993609F084
:100CB000A2C0F70117FF98C0619171918191919144
:100CC0007F011F7697FF03C00E94890810682AE001
:100CD00030E04E014FEF841A940AA4010E941408D8
:100CE000682E681816FFD2C0812F8E7F671408F017
:100CF000CCC014FF1DC112FD11C11E7E972C812F87
:100D0000867809F4CEC00FC131E094CF311509F1D6
:100D1000F8E0EF0EF11C8FE3898391E0692E712CCE
:100D20004E018FEF881A980A1F7713FD04C06016D2
:100D3000710408F43FC06114710409F042C0011548
:100D400009F447CFB50180E290E00E94D30701503B
:100D5000F6CF44E0E40EF11CDECFF70180818983F9
:100D6000F2E0EF0EF11C81E0682E712C4E014FEF86
:100D7000841A940AD9CFF701819091907F01672D51
:100D800070E016FD02C06FEF7FEFC4010E94C8073C
:100D90003C01CACFF701819091907F01672D70E0EF
:100DA00016FD02C06FEF7FEFC4010E94BD073C013A
:100DB0001068BBCFB50180E290E00E94D3070150DC
:100DC000B6CFF40117FD859117FF81914F01B50151
:100DD00090E00E94D30781E0011101C080E0081B70
:100DE000F1E06F1A7108A7CF61917191872F880F79
:100DF000880B982F65CF9537C9F41F7E1C872AE092
:100E000030E0FC85F7FF3BC0F70161917191819162
:100E100091917F014E014FEF841A940AA4010E9420
:100E20001408682E68181C851F775CCF812F897F76
:100E30008C87903799F058F49835B9F09F36E1F0E7
:100E4000F501868197812C96EFE00C94C3089837C2
:100E5000B9F714FD06C020E130E0D3CF9C85906146
:100E60009C87EC85E460EC87F6CF14FF02C0166027
:100E70001C8720E132E0C5CF28E030E0C2CFF70187
:100E80006191719180E090E0C4CF182F962C14FFEF
:100E900036CFFE01E60DF11D8081803309F041C09F
:100EA000197E13FD0EC010FF4FC0762C901618F45B
:100EB000700E7918902E802F8919091508F480E09A
:100EC000980E901608F042C0091914FF41C0B501F0
:100ED00080E390E00E94D30712FF09C088E590E00C
:100EE00011FD02C088E790E0B5010E94D3076714A6
:100EF000D0F14E018FEF881A980A6A94FE0132965B
:100F0000E60DF11D3F01F30182913F01B50190E033
:100F10000E94D30768147904B1F711CF972C182FCA
:100F2000B8CF12FD02C09394BCCF93949394B9CFE1
:100F3000972C182FE4CEB50180E290E00E94D307F1
:100F400083948016C0F3B7CF892CFBCF00E0BDCFD0
:100F5000812F867861F280E211FD8BE217FD8DE230
:100F6000B50190E0C2CFB50180E390E00E94D307C5
:100F70007A94BDCF8FEF9FEF66CFFC010590615053
:100F800070400110D8F7809590958E0F9F1F08959F
:100F9000FC016150704001900110D8F78095909548
:100FA0008E0F9F1F0895A3E0B0E0E9EDF7E00C94E9
:100FB000B308182F99836A837B83DB0113968C9186
:100FC00081FD09C01FEFBFEFB983812F998123965F
:100FD000E3E00C94CF0882FF1BC0EA81FB812681ED
:100FE0003781848195812817390754F40190F08165
:100FF000E02DCF010196AA81BB818D939D93108333
:10100000EA81FB8186819781019686839783DDCF74
:10101000AA81BB811896ED91FD911A97BD01812F90
:101020000995892B69F3CECFFA01AA27283051F10F
:10103000203181F1E8946F936E7F6E5F7F4F8F4F09
:101040009F4FAF4FB1E03ED0B4E03CD0670F781F68
:10105000891F9A1FA11D680F791F8A1F911DA11D4D
:101060006A0F711D811D911DA11D20D009F4689486
:101070003F912AE0269F11243019305D3193DEF62E
:10108000CF010895462F4770405D4193B3E00FD0E4
:10109000C9F7F6CF462F4F70405D4A3318F0495DCF
:1010A00031FD4052419302D0A9F7EACFB4E0A695B2
:1010B0009795879577956795BA95C9F700976105D4
:1010C000710508959B01AC010A2E0694579547952A
:1010D00037952795BA95C9F7620F731F841F951F1F
:1010E000A01D0895052E97FB1EF400940E94890808
:1010F00057FD07D00E94EA0807FC03D04EF40C9479
:10110000890850954095309521953F4F4F4F5F4F3F
:10111000089590958095709561957F4F8F4F9F4F63
:1011200008950E94DB08A59F900DB49F900DA49F89
:10113000800D911D11240895B7FF0C9491080E9411
:101140009108821B930B08952F923F924F925F92CA
:101150006F927F928F929F92AF92BF92CF92DF92C7
:10116000EF92FF920F931F93CF93DF93CDB7DEB72C
:10117000CA1BDB0B0FB6F894DEBF0FBECDBF0994C0
:101180002A88398848885F846E847D848C849B8417
:10119000AA84B984C884DF80EE80FD800C811B8125
:1011A000AA81B981CE0FD11D0FB6F894DEBF0FBE54
:1011B000CDBFED010895A29FB001B39FC001A39FD1
:1011C000700D811D1124911DB29F700D811D112480
:1011D000911D0895A1E21A2EAA1BBB1BFD010DC093
:1011E000AA1FBB1FEE1FFF1FA217B307E407F507D7
:1011F00020F0A21BB30BE40BF50B661F771F881FB3
:10120000991F1A9469F760957095809590959B0148
:0C121000AC01BD01CF010895F894FFCFA0
:10121C000400D30201000000E50200000000F80207
:10122C00020000000903010001001A030000010084
:10123C002E03010002003F030000020051030000D6
:10124C0003006403000003007603000004000100A7
:10125C0000008813B80BDC05A00FE80304000E0196
:10126C000F110F00000C0A090A0C000000060A12EC
:10127C000A060000446973706C61793A202573206A
:10128C00286D6F64653A2025642C20637573746F28
:10129C006D65723A202564290A003D3D3D3D3D3D7A
:1012AC003D3D3D3D3D3D3D3D3D3D3D3D3D3D3D3D62
:1012BC003D3D3D3D3D3D3D3D3D3D3D0052454B4C55
:1012CC00414D5441564C414E202D2041647665725F
:1012DC00746973696E6720426F6172640043757341
:1012EC00746F6D6572733A203500446973706C616C
:1012FC00792074696D653A203230207365636F6EA6
:10130C0064730053797374656D20737461727465C2
:10131C0064210A00494F542052656B6C616D6279EF
:10132C007261610052656B6C616D7461766C616E9B
:10133C00000A2D2D2D204E6577204D657373616746
:10134C0065202D2D2D00437573746F6D65723A20D9
:10135C000048656465726C696765204861727279D2
:10136C00732042696C6172004661726D6F7220412C
:10137C006E6B61732050616A657220414200537636
:10138C006172746520506574746572732053766154
:10139C00727462796767656E004C616E6762656E28
:1013AC007320646574656B74697662797261004947
:1013BC004F543A732052656B6C616D627972616146
:1013CC00005061796D656E743A202564206B720A49
:1013DC0000446973706C617920636F6D706C657417
:1013EC00652E004B6F702062696C20686F7320480B
:1013FC006172727900476F642062696C6166666124
:10140C00722048617272790048656465726C696714
:10141C006520486172727973004B6F702070616A3D
:10142C0020686F7320416E6B6100536B796E646141
:10143C0021204D617274656E2061746572004C617F
:10144C00742050657474657220627967676100421C
:10145C00796767612073766172743F2052696E6799
:10146C00004D79737465726965723F204C616E67CB
:10147C0062656E004C616E6762656E2066697861AC
:10148C0072206465740053796E6173206861723FD9
:10149C0020494F5473001F110A04040A111F000045
:00000001FF
