:100000000C9434000C9451000C9451000C94510049
:100010000C9451000C9451000C9451000C9451001C
:100020000C9451000C9451000C9451000C9451000C
:100030000C9451000C9451000C9451000C945100FC
:100040000C9451000C9451000C9451000C945100EC
:100050000C9451000C9451000C9451000C945100DC
:100060000C9451000C94510011241FBECFEFD8E026
:10007000DEBFCDBF11E0A0E0B1E0E0E8F4E002C0F7
:1000800005900D92AE32B107D9F721E0AEE2B1E0B2
:1000900001C01D92A035B207E1F70E9421020C9425
:1000A0003E020C94000060FF11C05C9A61FF10C01A
:1000B0005D9A62FF0FC05E9A63FF0EC05F9A5B9A03
:1000C00085E08A95F1F700005B9808955C98EECF83
:1000D0005D98EFCF5E98F0CF5F98F1CFCF93DF932D
:1000E00000D00F92CDB7DEB789839A836B83629578
:1000F0006F700E9453006B8189819A810E94530026
:1001000087EC90E00197F1F700C000000F900F908E
:100110000F90DF91CF9108954295440F440F407C9A
:100120006058640F0C946E0061E00E946E008FE3D3
:100130009FE10197F1F700C00000089562E00E947E
:100140006E008FE39FE10197F1F700C00000089572
:10015000CF93DF9300D00F92CDB7DEB789839A8318
:100160006B8362956F700E9453008FE19EE401974C
:10017000F1F700C000006B8189819A810E945300D1
:100180008FE19EE40197F1F700C000000F900F90FF
:100190000F90DF91CF9108955A9A0E94A8005A9823
:1001A00008950F931F93CF93DF9300D000D0CDB766
:1001B000DEB789839A836B837C8300E010E0EB8158
:1001C000FC818081811109C00F900F900F900F90DA
:1001D000DF91CF911F910F9108958B819C810196A2
:1001E0008B839C830031110529F460EC89819A810D
:1001F0000E946E00EB81FC81629189819A810E944C
:10020000CC000F5F1F4FDBCF0F931F93CF93DF9374
:1002100000D000D0CDB7DEB789839A838A01660FFC
:10022000660F660F687360640E946E000B831C8308
:100230000B811C81085F1F4FEB81FC816191EB8377
:10024000FC8389819A810E94CC008B819C818017DC
:10025000910791F70F900F900F900F90DF91CF9132
:100260001F910F9108950F931F93CF93DF93CDB7F5
:10027000DEB7A0970FB6F894DEBF0FBECDBF8C01DE
:10028000529A539A549A559A569A579A5C982FEFC5
:1002900080E792E0215080409040E1F700C00000EC
:1002A00063E0C8010E9453008FE19EE40197F1F7DB
:1002B00000C0000063E0C8010E9453008FE891E095
:1002C0000197F1F700C0000063E0C8010E945300ED
:1002D00062E0C8010E94530068E2C8010E946E00FB
:1002E0006CE0C8010E946E00C8010E94940066E0A4
:1002F000C8010E946E0095E89A95F1F7000088E029
:10030000E0E0F1E0DE01599601900D928A95E1F767
:10031000AE01475E5F4F60E0C8010E94040188E0C3
:10032000E4E2F1E0DE01519601900D928A95E1F749
:10033000AE014F5E5F4F61E0C8010E94040188E09A
:10034000E8E0F1E0DE01199601900D928A95E1F75F
:10035000AE01475F5F4F62E0C8010E94040188E080
:10036000E0E1F1E0DE01119601900D928A95E1F74E
:10037000AE014F5F5F4F63E0C8010E940401A09689
:100380000FB6F894DEBF0FBECDBFDF91CF911F91A6
:100390000F910895FC0110821182128213820C9435
:1003A0003301CF93C82F8A3029F460E070E08DE0EC
:1003B0000E94D1018091C00085FFFCCFC093C60090
:1003C00080E090E0CF9108958091C00087FFFCCF3E
:1003D0008091C60090E008951092C50083E3809359
:1003E000C400E0ECF0E080818D7F808386E0809324
:1003F000C20088E18093C10008950F931F93CF93AB
:10040000DF930CE311E082E0F801838381ED91E05A
:1004100080879187CEE2D1E081E08B8384EE91E00A
:100420008A879B870E94EC0100934C0110934D0139
:10043000C0934A01D0934B01DF91CF911F910F914F
:10044000089500D000D0CDB7DEB7CE0101960E944E
:10045000CA01CE0101960E943301CE0101960E948D
:10046000940040E060E0CE0101960E948C0068E1BB
:1004700071E0CE0101960E94D100FFCFF894FFCF2A
:1004800004000E010F110F00000C0A090A0C0000F5
:1004900000060A120A06000048656A2120506574A9
:0E04A000746572001F110A04040A111F000087
:00000001FF
