:100000000C9434000C9451000C9451000C94510049
:100010000C9451000C9451000C9451000C9451001C
:100020000C9451000C9451000C9451000C9451000C
:100030000C9451000C9451000C9451000C945100FC
:100040000C9453000C9451000C9451000C945100EA
:100050000C9451000C9451000C9451000C945100DC
:100060000C9451000C94510011241FBECFEFD8E026
:10007000DEBFCDBF11E0A0E0B1E0EEECF6E002C0E3
:1000800005900D92A237B107D9F721E0A2E7B1E0C0
:1000900001C01D92A939B207E1F70E9406030C9432
:1000A00065030C9400001F921FB61F9211248F93BA
:1000B0009F93AF93BF938091730190917401A0912E
:1000C0007501B09176010196A11DB11D8093730158
:1000D00090937401A0937501B0937601BF91AF9195
:1000E0009F918F911F901FBE1F90189514BC83E0A5
:1000F00085BD81E080936E0078940895F8946091B6
:1001000073017091740180917501909176017894DA
:100110000895CF93DF9300D000D0CDB7DEB78B83A7
:100120009C8369837A830E94790140E060E08B813F
:100130009C810E94710169817A818B819C810F90E1
:100140000F900F900F90DF91CF910C94B6016F92AA
:100150007F928F929F92AF92BF92CF92DF92EF9257
:10016000FF920F931F93CF93DF93CDB7DEB72A97FC
:100170000FB6F894DEBF0FBECDBF6C015B012D83BF
:100180003E834F8358870E947E0069837A838B83E6
:100190009C83F50101900020E9F731973F016A182F
:1001A0007B0820E129871A8645018E1A9F0A0E9442
:1001B0007E0029813A814B815C81621B730B840B29
:1001C000950B2D813E814F815885621773078407F7
:1001D0009507A8F02A960FB6F894DEBF0FBECDBFE4
:1001E000DF91CF911F910F91FF90EF90DF90CF9013
:1001F000BF90AF909F908F907F906F900895C601B1
:100200000E94790140E060E0C6010E947101098509
:100210001A8511950195110980E1E82EF12C498587
:100220005A85E41AF50A60E20615170520F4F5016F
:10023000E00FF11F6081C6010E94B1010F5F1F4FE7
:100240000E151F0581F789859A85019789879A87F9
:10025000881599051CF420E129871A863FEF47E8A5
:1002600053E1315040405040E1F700C000009FCFC3
:1002700060FF11C05C9A61FF10C05D9A62FF0FC001
:100280005E9A63FF0EC05F9A5B9A85E08A95F1F7EC
:1002900000005B9808955C98EECF5D98EFCF5E9874
:1002A000F0CF5F98F1CFCF93DF9300D00F92CDB70F
:1002B000DEB789839A836B8362956F700E943801E1
:1002C0006B8189819A810E94380187EC90E00197C7
:1002D000F1F700C000000F900F900F90DF91CF91C9
:1002E00008954295440F440F407C6058640F0C946D
:1002F000530161E00E9453018FE39FE10197F1F701
:1003000000C00000089562E00E9453018FE39FE166
:100310000197F1F700C000000895CF93DF9300D05C
:100320000F92CDB7DEB789839A836B8362956F7026
:100330000E9438018FE19EE40197F1F700C00000B0
:100340006B8189819A810E9438018FE19EE4019737
:10035000F1F700C000000F900F900F90DF91CF9148
:1003600008955A9A0E948D015A9808950F931F93E9
:10037000CF93DF9300D000D0CDB7DEB789839A83C7
:100380006B837C8300E010E0EB81FC818081811134
:1003900009C00F900F900F900F90DF91CF911F9198
:1003A0000F9108958B819C8101968B839C830031F2
:1003B000110529F460EC89819A810E945301EB8137
:1003C000FC81629189819A810E94B1010F5F1F4F68
:1003D000DBCF0F931F93CF93DF9300D000D0CDB727
:1003E000DEB789839A838A01660F660F660F68738A
:1003F00060640E9453010B831C830B811C81085F86
:100400001F4FEB81FC816191EB83FC8389819A8191
:100410000E94B1018B819C818017910791F70F9009
:100420000F900F900F90DF91CF911F910F91089532
:100430000F931F93CF93DF93CDB7DEB7A0970FB67F
:10044000F894DEBF0FBECDBF8C01529A539A549AD6
:10045000559A569A579A5C982FEF80E792E0215070
:1004600080409040E1F700C0000063E0C8010E94B6
:1004700038018FE19EE40197F1F700C0000063E0CE
:10048000C8010E9438018FE891E00197F1F700C0A0
:10049000000063E0C8010E94380162E0C8010E94C8
:1004A000380168E2C8010E9453016CE0C8010E9453
:1004B0005301C8010E94790166E0C8010E945301FE
:1004C00095E89A95F1F7000088E0E4E0F1E0DE01BC
:1004D000599601900D928A95E1F7AE01475E5F4F04
:1004E00060E0C8010E94E90188E0E8E6F1E0DE0191
:1004F000519601900D928A95E1F7AE014F5E5F4FE4
:1005000061E0C8010E94E90188E0ECE0F1E0DE0171
:10051000199601900D928A95E1F7AE01475F5F4F02
:1005200062E0C8010E94E90188E0E4E1F1E0DE0157
:10053000119601900D928A95E1F7AE014F5F5F4FE2
:1005400063E0C8010E94E901A0960FB6F894DEBFEF
:100550000FBECDBFDF91CF911F910F910895FC0188
:1005600010821182128213820C941802CF93C82F2A
:100570008A3029F460E070E08DE00E94B60280913C
:10058000C00085FFFCCFC093C60080E090E0CF9113
:1005900008958091C00087FFFCCF8091C60090E055
:1005A00008951092C50083E38093C400E0ECF0E06E
:1005B00080818D7F808386E08093C20088E1809374
:1005C000C10008950F931F93CF93DF9305E811E0C7
:1005D00082E0F801838386EB92E080879187C7E70A
:1005E000D1E081E08B8389EC92E08A879B870E942F
:1005F000D1020093950110939601C0939301D0937B
:100600009401DF91CF911F910F91089500D000D0F8
:10061000CDB7DEB78E010F5F1F4FC8010E94AF023A
:10062000C8010E941802C8010E9479010E94760048
:100630006CE171E0C8010E9489002FEF37EA81E682
:10064000215030408040E1F700C00000C8010E9406
:10065000790140E060E0C8010E9471016BE271E045
:10066000C8010E94B6019FEF27EA31E69150204071
:100670003040E1F700C000008091720180FD11C0A0
:10068000609102017091030120E23EE440E050E0FD
:10069000C8010E94A700809172018F5F8093720150
:1006A000EBCF6091000170910101C8010E948900A7
:1006B00084E59DEC2DE233E08150904020403040B5
:0E06C000D9F700C000C00000E6CFF894FFCFCD
:1006CE003701500104000E010F110F00000C0A0932
:1006DE000A0C000000060A120A0600005376617228
:1006EE00746520506574746572730053766172740C
:1006FE0062796767656E004279676761207376611C
:10070E0072743F2052696E67205065747465720072
:10071E004C617420506574746572206279676761EC
:10072E0020617420646967001F110A04040A111FF6
:02073E000000B9
:00000001FF
