:100000000C9434000C9451000C9451000C94510049
:100010000C9451000C9451000C9451000C9451001C
:100020000C9451000C9451000C9451000C9451000C
:100030000C9451000C9451000C945D000C945100F0
:100040000C9451000C9451000C9451000C945100EC
:100050000C9451000C9451000C9451000C945100DC
:100060000C9451000C94510011241FBECFEFD8E026
:10007000DEBFCDBF13E0A0E0B1E0E6E9F3E102C0EE
:1000800005900D92AA3AB107D9F723E0AAEAB3E0A6
:1000900001C01D92A13DB207E1F70E9412050C9428
:1000A000C9090C94000082E084BD93E095BD99EFEE
:1000B00097BD80936E00789408951F921FB61F928B
:1000C00011248F939F93AF93BF938091AA03909134
:1000D000AB03A091AC03B091AD030196A11DB11D7E
:1000E0008093AA039093AB03A093AC03B093AD03AA
:1000F000BF91AF919F918F911F901FBE1F90189538
:10010000F8946091AA037091AB038091AC03909135
:10011000AD03789408950F931F93CF93DF932091AD
:10012000000130910101C2E4D1E0FE0180E090E0E5
:100130008C012817390721F040815181040F151FC8
:100140000196329685309105A1F70E944506B801C7
:100150000E94CF05609100017091010120E030E024
:10016000A9016217730769F0E881F9814E0F5F1FDB
:100170008417950734F4C901DF91CF911F910F9136
:1001800008952F5F3F4F22962530310551F780E0CB
:1001900090E0F2CF0F931F93CF93DF93CDB7DEB7ED
:1001A00064970FB6F894DEBF0FBECDBFE2E0F1E07A
:1001B00020E030E08901448155814817590761F4F6
:1001C000D801AA0FBB1FAE014F5F5F4FA40FB51F31
:1001D0002D933D930F5F1F4F2F5F3F4F36962A3071
:1001E000310549F7029799F48091AE03FE0180FD35
:1001F000329601811281C80164960FB6F894DEBF71
:100200000FBECDBFDF91CF911F910F9108950115C2
:10021000110589F30E944506B8010E94CF05880F99
:10022000991F8C0F9D1FFC01E4CFDC01ED91FD9126
:1002300012978081833CD9F491819115C1F0943A51
:1002400039F058F4953879F0963959F0943869F4C2
:1002500081E03296ED93FD930895953A21F0963B17
:1002600021F482E0F6CF80E0F4CF8FE3F2CFCF012C
:1002700001968D939D9380810895CF92DF92EF92A6
:10028000FF920F931F93CF93DF9300D000D0CDB791
:10029000DEB78C017B010E94570340E060E0C8019B
:1002A0000E944F03E982FA82C12CD12CCE01019623
:1002B0008B839C83E980FA80F701608161110DC016
:1002C0000F900F900F900F90DF91CF911F910F9192
:1002D000FF90EF90DF90CF900895633CA9F48B815D
:1002E0009C810E941501682FC8010E948F03EFEFC7
:1002F000CE1ADE0AF0E1CF16D104E1F641E060E06B
:10030000C8010E944F03D6CFC8010E948F038FEF10
:10031000E81AF80AE982FA82EACF2F923F924F92C6
:100320005F926F927F928F929F92AF92BF92CF9285
:10033000DF92EF92FF920F931F93CF93DF93CDB78E
:10034000DEB7CC50D1400FB6F894DEBF0FBECDBFA4
:100350006C018B01C95FDE4F288339834A835B833D
:10036000C750D1400E948000CD5FDE4F6883798303
:100370008A839B83C350D140FE013196A12CB12CBE
:100380001F01D8018C91811149C000E110E04E019C
:10039000B1E08B0E9B1EC55FDE4F8882CB50D140F3
:1003A000C45FDE4F9882CC50D140442455244A1873
:1003B0005B080E948000CD5FDE4F288139814A8131
:1003C0005B81C350D140621B730B840B950BC95FDB
:1003D000DE4F288139814A815B81C750D140621745
:1003E00073078407950738F1C45FDE4F0FB6F894A2
:1003F000DEBF0FBECDBFDF91CF911F910F91FF9058
:10040000EF90DF90CF90BF90AF909F908F907F90B4
:100410006F905F904F903F902F9008952FEFA21A0A
:10042000B20A01931193833C19F40E5F1F4FA9CFB9
:100430000F5F1F4FA6CFC6010E94570340E060E048
:10044000C6010E944F03EE24FF24E01AF10A90E156
:10045000692E712C601A710A60E2EA14FB04B8F488
:10046000F701EE0FFF1FE20DF31D80819181F40172
:1004700080839183C55FDE4F8881CB50D140C45FBC
:10048000DE4F9881CC50D1400E941501682FC601E3
:100490000E948F03FFEFEF1AFF0AE614F704E1F65C
:1004A000015011090415150514F400E110E02FEFB7
:1004B00037E843E1215030404040E1F700C0000000
:1004C00078CF0F931F93CF93DF93CDB7DEB72C97E1
:1004D0000FB6F894DEBF0FBECDBF8B879C876D83B0
:1004E0007E832F83388749875A870E9480006983DB
:1004F0007A838B839C8301E011E00E948000298134
:100500003A814B815C81621B730B840B950B2F81AD
:10051000388549855A85621773078407950758F00F
:100520002C960FB6F894DEBF0FBECDBFDF91CF91F2
:100530001F910F9108958B859C851115C9F00E941C
:10054000570340E060E08B859C850E944F036D81DE
:100550007E818B859C850E94940310272FEF39E6BE
:1005600048E1215030404040E1F700C00000C5CFD5
:100570000E945703F2CF0F931F93CF93DF938C0109
:10058000EB018D818F938C818F938B818F938A81E7
:100590008F9389818F9388818F9384E791E09F93D4
:1005A0008F930E9453068A819B812DB73EB7285FA7
:1005B0003F4F0FB6F8943EBF0FBE2DBF813091055F
:1005C000D9F08230910529F1892B89F468817981EC
:1005D000C8010E943D0134E58DEC9DE223E03150DD
:1005E000804090402040D9F700C000C00000DF915B
:1005F000CF911F910F9108956881798120E23EE4A7
:1006000040E050E0C801DF91CF911F910F910C9411
:100610008D016881798120E23EE440E050E0C8012C
:10062000DF91CF911F910F910C94610260FF11C077
:100630005C9A61FF10C05D9A62FF0FC05E9A63FF13
:100640000EC05F9A5B9A85E08A95F1F700005B988F
:1006500008955C98EECF5D98EFCF5E98F0CF5F98ED
:10066000F1CFCF93DF9300D00F92CDB7DEB7898360
:100670009A836B8362956F700E9416036B818981E8
:100680009A810E94160387EC90E00197F1F700C071
:1006900000000F900F900F90DF91CF910895429539
:1006A000440F440F407C6058640F0C94310361E0A8
:1006B0000E9431038FE39FE10197F1F700C0000032
:1006C000089562E00E9431038FE39FE10197F1F703
:1006D00000C000000895CF93DF9300D00F92CDB7F4
:1006E000DEB789839A836B8362956F700E941603CD
:1006F0008FE19EE40197F1F700C000006B818981D2
:100700009A810E9416038FE19EE40197F1F700C0E1
:1007100000000F900F900F90DF91CF9108955A9A9B
:100720000E946B035A980895EF92FF920F931F93C4
:10073000CF93DF937C01EB0100E010E08881811111
:1007400007C0DF91CF911F910F91FF90EF90089517
:100750000031110521F460ECC7010E94310368816A
:10076000633CF1F489818115D9F0843A39F070F451
:10077000853891F0863971F0843881F461E0C701E1
:100780000E948F0322960F5F1F4FD8CF853A21F02A
:10079000863B21F462E0F3CF60E0F1CF6FE3EFCF6F
:1007A000C7010E948F032196EECF0F931F93CF9323
:1007B000DF9300D000D0CDB7DEB789839A838A015A
:1007C000660F660F660F687360640E9431030B83C7
:1007D0001C830B811C81085F1F4FEB81FC816191A1
:1007E000EB83FC8389819A810E948F038B819C819A
:1007F0008017910791F70F900F900F900F90DF9156
:10080000CF911F910F9108950F931F93CF93DF9373
:10081000CDB7DEB7E0970FB6F894DEBF0FBECDBF01
:100820008C01529A539A549A559A569A579A5C98B0
:100830002FEF80E792E0215080409040E1F700C028
:10084000000063E0C8010E9416038FE19EE4019757
:10085000F1F700C0000063E0C8010E9416038FE8B2
:1008600091E00197F1F700C0000063E0C8010E9429
:10087000160362E0C8010E94160368E2C8010E94E4
:1008800031036CE0C8010E943103C8010E94570384
:1008900066E0C8010E94310395E89A95F1F70000DF
:1008A00088E0ECE4F1E0DE01999601900D928A95E2
:1008B000E1F7AE01475D5F4F60E0C8010E94D503DC
:1008C00088E0E4E5F1E0DE01919601900D928A95D1
:1008D000E1F7AE014F5D5F4F61E0C8010E94D503B3
:1008E00088E0ECE5F1E0DE01599601900D928A95E1
:1008F000E1F7AE01475E5F4F62E0C8010E94D50399
:1009000088E0E1EAF3E0DE01519601900D928A95CC
:10091000E1F7AE014F5E5F4F63E0C8010E94D5036F
:1009200088E0E4E6F1E0DE01199601900D928A95E7
:10093000E1F7AE01475F5F4F64E0C8010E94D50355
:1009400088E0ECE6F1E0DE01119601900D928A95C7
:10095000E1F7AE014F5F5F4F65E0C8010E94D5032C
:10096000E0960FB6F894DEBF0FBECDBFDF91CF91FA
:100970001F910F910895FC0110821182128213823F
:100980000C940404CF93C82F8A3029F460E070E0FF
:100990008DE00E94C2048091C00085FFFCCFC0930F
:1009A000C60080E090E0CF9108958091C00087FF5D
:1009B000FCCF8091C60090E008951092C50083E3BB
:1009C0008093C400E0ECF0E080818D7F808386E03E
:1009D0008093C20088E18093C10008950F931F9314
:1009E000CF93DF930DEB13E082E0F801838382EC79
:1009F00094E080879187CFEAD3E081E08B8385ED17
:100A000094E08A879B870E94DD040093CD031093B6
:100A1000CE03C093CB03D093CC03DF91CF911F9132
:100A20000F910895CDB7DEB72E970FB6F894DEBFBD
:100A30000FBECDBF0E94EE048E01095F1F4FC8019B
:100A40000E94BB04C8010E940404C8010E9457030D
:100A50000E94530086B590E00E944A068AE991E020
:100A60000E9469068CEB91E00E9469068AE991E098
:100A70000E9469068DED91E00E9469068AEE91E080
:100A80000E94690683E092E00E94690664E172E0D8
:100A9000C8010E943D012FEF8BE792E92150804071
:100AA0009040E1F700C00000C8010E94570364E2D3
:100AB00072E0C8010E943D012FEF87EA91E62150C4
:100AC00080409040E1F700C000000B871C8796E053
:100AD000D92E7E012FEFE21AF20A0E948B008C01C0
:100AE0000E94CA00D89EF001D99EF00D1124EE5F3D
:100AF000FE4FD7018D2D01900D928A95E1F781E38C
:100B000092E00E94690686E492E09F938F930E9490
:100B100053060F900F90ED86FE8603301105C9F144
:100B200004301105C9F10130110541F081E592E071
:100B30000230110529F48EE792E002C088E692E0C7
:100B40000E946906F801EE0FFF1FEE5BFE4F8181E8
:100B50008F9380818F9383EC92E09F938F930E9479
:100B600053066D857E858B859C850E94BB02009314
:100B70000001109301018091AE038F5F8093AE035B
:100B800083ED92E00E9469060F900F900F900F90F6
:100B9000A4CF89E992E0D4CF81EB92E0D1CF97FB4B
:100BA000072E16F4009407D077FD09D00E94E305C4
:100BB00007FC05D03EF4909581959F4F0895709560
:100BC00061957F4F0895AA1BBB1B51E107C0AA1F67
:100BD000BB1FA617B70710F0A61BB70B881F991FDE
:100BE0005A95A9F780959095BC01CD010895AAE08A
:100BF000B0E0EDEFF5E00C94710989879A87FC016C
:100C0000608171818281938100977040604021F4FE
:100C100064E279ED8BE597E02DE133EF41E050E0C0
:100C20000E942F0929833A834B835C839B01AC018B
:100C3000A7EAB1E40E944E096D837E838F83988773
:100C4000ACEEB4EF29813A814B815C810E945C0952
:100C50002D813E814F815885260F371F481F591F10
:100C6000C901DA01B7FF03C00197A109B048E985BE
:100C7000FA8580839183A283B3839F772A96E2E0EB
:100C80000C948D090E94F70508958EE391E00E946F
:100C9000F705089580933E0190933F011092400123
:100CA000109241010895A0E0B0E0E9E5F6E00C946F
:100CB0007109AE014B5F5F4FFA0161917191AF0114
:100CC0008091CD039091CE030E949506E2E00C94B2
:100CD0008D090F931F93CF93DF93E091CD03F09194
:100CE000CE032381EC0100E010E021FD0EC00FEFE8
:100CF0001FEFC801DF91CF911F910F9108952196A9
:100D00000995892B11F00FEF1FEF88816091CD03BA
:100D10007091CE03DB011896ED91FD918111EFCF1B
:100D20008AE00995892B29F3E2CFACE0B0E0EBE94A
:100D3000F6E00C9464095C016B017A01FC011682F7
:100D40001782838181FFD3C12AE0522EF5012381CE
:100D5000F60123FD859123FF81916F01811509F42F
:100D60002CC1853239F423FD959123FF91916F01B8
:100D7000953229F4B50190E00E949008E7CF30E069
:100D8000712C00E010E0103210F59B32C9F050F4E5
:100D90009032B9F09332C9F09E3261F516FD0DC163
:100DA000106405C09D3279F0903399F41160F6011A
:100DB00023FD959123FF91916F019111E4CF23C001
:100DC00012601460F4CF1860F2CF1061F0CF17FDFD
:100DD0001AC080ED890F8A30F8F616FF05C0759CA1
:100DE000800D1124782EE3CF059D800D1124082F4E
:100DF0001062DDCF9C3611F41068D9CF9C3409F411
:100E000040C09836A1F2892F8F7D85548330D8F168
:100E1000933609F45FC0933709F46AC0933509F437
:100E200076C0943619F0993609F0A2C0F70117FF81
:100E300098C061917191819191917F011F7697FF87
:100E400003C00E94460910682AE030E04E014FEFCF
:100E5000841A940AA4010E94D108682E681816FF0B
:100E6000D2C0812F8E7F671408F0CCC014FF1DC143
:100E700012FD11C11E7E972C812F867809F4CEC0F9
:100E80000FC131E094CF311509F1F8E0EF0EF11CFC
:100E90008FE3898391E0692E712C4E018FEF881AC0
:100EA000980A1F7713FD04C06016710408F43FC050
:100EB0006114710409F042C0011509F447CFB5016E
:100EC00080E290E00E9490080150F6CF44E0E40EEA
:100ED000F11CDECFF70180818983F2E0EF0EF11C77
:100EE00081E0682E712C4E014FEF841A940AD9CFFD
:100EF000F701819091907F01672D70E016FD02C08F
:100F00006FEF7FEFC4010E9485083C01CACFF70153
:100F1000819091907F01672D70E016FD02C06FEF08
:100F20007FEFC4010E947A083C011068BBCFB50175
:100F300080E290E00E9490080150B6CFF40117FDC6
:100F4000859117FF81914F01B50190E00E949008B3
:100F500081E0011101C080E0081BF1E06F1A710807
:100F6000A7CF61917191872F880F880B982F65CF3C
:100F70009537C9F41F7E1C872AE030E0FC85F7FF17
:100F80003BC0F70161917191819191917F014E0177
:100F90004FEF841A940AA4010E94D108682E6818A1
:100FA0001C851F775CCF812F897F8C87903799F0C4
:100FB00058F49835B9F09F36E1F0F50186819781B4
:100FC0002C96EFE00C9480099837B9F714FD06C011
:100FD00020E130E0D3CF9C8590619C87EC85E46074
:100FE000EC87F6CF14FF02C016601C8720E132E0C8
:100FF000C5CF28E030E0C2CFF7016191719180E068
:1010000090E0C4CF182F962C14FF36CFFE01E60DCA
:10101000F11D8081803309F041C0197E13FD0EC09F
:1010200010FF4FC0762C901618F4700E7918902E81
:10103000802F8919091508F480E0980E901608F0A1
:1010400042C0091914FF41C0B50180E390E00E943D
:10105000900812FF09C088E590E011FD02C088E702
:1010600090E0B5010E9490086714D0F14E018FEF17
:10107000881A980A6A94FE013296E60DF11D3F0126
:10108000F30182913F01B50190E00E94900868143D
:101090007904B1F711CF972C182FB8CF12FD02C0E9
:1010A0009394BCCF93949394B9CF972C182FE4CEFC
:1010B000B50180E290E00E94900883948016C0F30E
:1010C000B7CF892CFBCF00E0BDCF812F867861F2AE
:1010D00080E211FD8BE217FD8DE2B50190E0C2CFF9
:1010E000B50180E390E00E9490087A94BDCF8FEF25
:1010F0009FEF66CFFC010590615070400110D8F75A
:10110000809590958E0F9F1F0895FC01615070404F
:1011100001900110D8F7809590958E0F9F1F08952C
:10112000A3E0B0E0E6E9F8E00C947009182F998389
:101130006A837B83DB0113968C9181FD09C01FEFCD
:10114000BFEFB983812F99812396E3E00C948C093A
:1011500082FF1BC0EA81FB812681378184819581D2
:101160002817390754F40190F081E02DCF01019642
:10117000AA81BB818D939D931083EA81FB81868137
:101180009781019686839783DDCFAA81BB811896CC
:10119000ED91FD911A97BD01812F0995892B69F376
:1011A000CECFFA01AA27283051F1203181F1E894FD
:1011B0006F936E7F6E5F7F4F8F4F9F4FAF4FB1E04A
:1011C0003ED0B4E03CD0670F781F891F9A1FA11D45
:1011D000680F791F8A1F911DA11D6A0F711D811D46
:1011E000911DA11D20D009F468943F912AE0269F0B
:1011F00011243019305D3193DEF6CF010895462F6A
:101200004770405D4193B3E00FD0C9F7F6CF462F4A
:101210004F70405D4A3318F0495D31FD40524193B3
:1012200002D0A9F7EACFB4E0A69597958795779570
:101230006795BA95C9F700976105710508959B01F7
:10124000AC010A2E06945795479537952795BA9580
:10125000C9F7620F731F841F951FA01D0895052EE7
:1012600097FB1EF400940E94460957FD07D00E9488
:10127000A70907FC03D04EF40C94460950954095FD
:10128000309521953F4F4F4F5F4F08959095809532
:10129000709561957F4F8F4F9F4F08950E949809D9
:1012A000A59F900DB49F900DA49F800D911D1124BA
:1012B0000895B7FF0C944E090E944E09821B930BB0
:1012C00008952F923F924F925F926F927F928F92EA
:1012D0009F92AF92BF92CF92DF92EF92FF920F93C5
:1012E0001F93CF93DF93CDB7DEB7CA1BDB0B0FB6CF
:1012F000F894DEBF0FBECDBF09942A88398848888C
:101300005F846E847D848C849B84AA84B984C88421
:10131000DF80EE80FD800C811B81AA81B981CE0F18
:10132000D11D0FB6F894DEBF0FBECDBFED010895FD
:10133000A29FB001B39FC001A39F700D811D112416
:10134000911DB29F700D811D1124911D0895A1E280
:101350001A2EAA1BBB1BFD010DC0AA1FBB1FEE1F2F
:10136000FF1FA217B307E407F50720F0A21BB30B7A
:10137000E40BF50B661F771F881F991F1A9469F7F6
:1013800060957095809590959B01AC01BD01CF0152
:061390000895F894FFCF60
:101396000400E50201000000F802000000000C0352
:1013A600020000001D03010001002F0300000100E0
:1013B6004503010002005703000002006903000014
:1013C60003007D03000003009003000004000100F9
:1013D60000008813B80BDC05A00FE80304000E011B
:1013E6000F110F000A000E010F110F000A000E1157
:1013F60011110E00000C0A090A0C000000060A1260
:101406000A060000446973706C61793A20257320DE
:10141600286D6F64653A2025642C20637573746F9C
:101426006D65723A202564290A003D3D3D3D3D3DEE
:101436003D3D3D3D3D3D3D3D3D3D3D3D3D3D3D3DD6
:101446003D3D3D3D3D3D3D3D3D3D3D0052454B4CC9
:10145600414D5441564C414E202D204164766572D3
:10146600746973696E6720426F61726400437573B5
:10147600746F6D6572733A203500446973706C61E0
:10148600792074696D653A203230207365636F6E1A
:1014960064730053797374656D2073746172746537
:1014A60064210A00494F542052656B6C616D627964
:1014B60072C3A50052656B6C616D7461766C616E6A
:1014C600000A2D2D2D204E6577204D6573736167BB
:1014D60065202D2D2D00437573746F6D65723A204E
:1014E6000048656465726C69676520486172727947
:1014F600732042696C6172004661726D6F722041A1
:101506006E6B61732050616A6572204142005376AA
:1015160061727465205065747465727320537661C8
:10152600727462796767656E004CC3A56E67626503
:101536006E7320646574656B746976627972C3A58F
:1015460000494F543A732052656B6C616D62797233
:10155600C3A5005061796D656E743A202564206BD1
:10156600720A00446973706C617920636F6D706CE8
:101576006574652E004BC3B6702062696C20686F77
:101586007320486172727900476F642062696C61EA
:101596006666C3A472204861727279004865646504
:1015A600726C69676520486172727973004BC3B6C5
:1015B600702070616A20686F7320416E6B61005302
:1015C6006B796E646121204DC3A57274656E20C36C
:1015D600A4746572004CC3A574205065747465725A
:1015E6002062796767610042796767612073766177
:1015F60072743F2052696E67004D79737465726923
:1016060065723F204CC3A56E6762656E004CC3A52C
:101616006E6762656E206669786172206465740023
:1016260053796E61732068C3A4723F20494F547387
:0A163600001F110A04040A111F002E
:00000001FF
