:100000000C9434000C9451000C9451000C94510049
:100010000C9451000C9451000C9451000C9451001C
:100020000C9451000C9451000C9451000C9451000C
:100030000C9451000C9451000C9451000C945100FC
:100040000C9451000C9451000C9451000C945100EC
:100050000C9451000C9451000C9451000C945100DC
:100060000C9451000C94510011241FBECFEFD8E026
:10007000DEBFCDBF11E0A0E0B1E0EAE4FAE002C0EB
:1000800005900D92A433B107D9F721E0A4E3B1E0C4
:1000900001C01D92A635B207E1F70E9406020C943A
:1000A00023050C94000060FF11C05C9A61FF10C032
:1000B0005D9A62FF0FC05E9A63FF0EC05F9A5B9A03
:1000C00085E08A95F1F700005B9808955C98EECF83
:1000D0005D98EFCF5E98F0CF5F98F1CF1F93CF93ED
:1000E000DF93D82FC92F162F70E084E075956795A0
:1000F0008A95E1F78D2F0E945300612F8D2F9C2F41
:100100000E94530087EC90E00197F1F700C00000D7
:10011000DF91CF911F9108954295440F440F407C89
:100120006058640F0C946E0061E00E946E008FE3D3
:100130009FE10197F1F700C00000089562E00E947E
:100140006E008FE39FE10197F1F700C00000089572
:100150001F93CF93DF93D82FC92F162F70E084E021
:10016000759567958A95E1F78D2F0E9453008FE171
:100170009EE40197F1F700C00000612F8D2F9C2FA6
:100180000E9453008FE19EE40197F1F700C0000048
:10019000DF91CF911F9108955A9A0E94A8005A9812
:1001A0000895EF92FF920F931F93CF93DF938C01EB
:1001B000EB01F12CE12C8991882391F080E1E81684
:1001C000F10421F460ECC8010E946E00FE01319739
:1001D0006081C8010E94CC008FEFE81AF80AEBCFCB
:1001E000DF91CF911F910F91FF90EF900895EF92C3
:1001F000FF920F931F93CF93DF938C017A01677067
:1002000088E0689FB00111246064C8010E946E00FC
:10021000E70188E0E80EF11C6991C8010E94CC005A
:10022000CE15DF05C9F7DF91CF911F910F91FF9098
:10023000EF9008950F931F93CF93DF93CDB7DEB761
:10024000A0970FB6F894DEBF0FBECDBF8C01529AB7
:10025000539A549A559A569A579A5C982FEF80E77A
:1002600092E0215080409040E1F700C0000063E040
:10027000C8010E9453008FE19EE40197F1F700C08E
:10028000000063E0C8010E9453008FE891E00197ED
:10029000F1F700C0000063E0C8010E94530062E073
:1002A000C8010E94530068E2C8010E946E006CE021
:1002B000C8010E946E00C8010E94940066E0C80157
:1002C0000E946E0095E89A95F1F7000088E0E0E062
:1002D000F1E0DE01599601900D928A95E1F7AE01A9
:1002E000475E5F4F60E0C8010E94F70088E0EAE2E5
:1002F000F1E0DE01519601900D928A95E1F7AE0191
:100300004F5E5F4F61E0C8010E94F70088E0E8E0BF
:10031000F1E0DE01199601900D928A95E1F7AE01A8
:10032000475F5F4F62E0C8010E94F70088E0E0E1AC
:10033000F1E0DE01119601900D928A95E1F7AE0190
:100340004F5F5F4F63E0C8010E94F700A0960FB6B1
:10035000F894DEBF0FBECDBFDF91CF911F910F91FB
:100360000895FC0111821082138212820C941A01EA
:10037000CF93C82F8A3029F470E060E08DE00E94AE
:10038000B8018091C00085FFFCCFC093C60090E00B
:1003900080E0CF9108958091C00087FFFCCF8091CD
:1003A000C60090E008951092C50083E38093C400D6
:1003B000E0ECF0E080818D7F808386E08093C20056
:1003C00088E18093C10008950F931F93CF93DF932B
:1003D00002E411E082E0F801838388EB91E09187E9
:1003E0008087C4E3D1E081E08B838BEC91E09B8735
:1003F0008A870E94D301E0E5F1E013830283D18371
:10040000C083DF91CF911F910F91089500D000D04C
:10041000CDB7DEB70E94E401CE0101960E94B10182
:10042000CE0101960E941A01CE0101960E9494000D
:1004300068E171E0CE0101960E94D10088E191E06F
:100440000E9444021F928CE08F9380E291E09F9380
:100450008F930E9430020F900F900F900F90FFCF5C
:10046000B0E0A0E0E6E3F2E00C94FC04FE01359677
:1004700061917191AF0180915201909153010E945D
:100480007002E2E00C9418050F931F93CF93DF9353
:10049000E0915201F0915301238110E000E021FD31
:1004A0000EC00FEF1FEFC801DF91CF911F910F9189
:1004B00008950995892B11F00FEF1FEFCE01EC0184
:1004C00089916091520170915301DB011896ED9171
:1004D000FC918111EECF8AE00995892B21F3E1CFC0
:1004E000AFE0B0E0E6E7F2E00C94EC047C013B0105
:1004F0008A01DC0117961C921E92169713968C9116
:1005000081FFC3C19AE0292EFE0131964F01D70128
:1005100013969C91F30193FD859193FF81913F0187
:10052000882309F448C1853239F493FD859193FFFE
:1005300081913F01853229F4B70190E00E945E0469
:10054000E6CFB12C412C512CBFE1B51538F08B32E0
:1005500009F188F4803201F1833221F157FC3AC06D
:1005600020ED280F2A3040F556FE1FC0B29C200D0A
:100570001124B22E06C08D3291F0803379F7689441
:1005800050F8F30193FD859193FF81913F01811113
:10059000DBCF20C0689451F8689452F8F2CF689489
:1005A00053F8EFCF689454F8ECCF429C200D1124FF
:1005B000422E689455F8E5CF8E3229F456FCFBC0E4
:1005C000689456F8DECF8C3619F4689457F8D9CF72
:1005D0008836B9F2982F9F7D95549330C0F08336BA
:1005E000A1F18337C1F1833509F05BC0D801CD900B
:1005F000DD908D016B2D70E056FC02C06FEF7FEF38
:10060000C6010E9448045C01689457F80AC00C5F58
:100610001F4FEFE3E983AA24A394B12C6401E8946B
:1006200057F853FC04C04A141B0409F018F5342C85
:10063000A114B10431F5332009F469CFB70180E288
:1006400090E00E945E043A94F6CFD8018C918983A1
:100650000E5F1F4FE0CFF801C190D1908F016B2D3D
:1006600070E056FC02C06FEF7FEFC6010E9453049A
:100670005C01D5CFB70180E290E00E945E044A940D
:10068000D2CFF60157FC859157FE81916F01B701DA
:1006900090E00E945E0431103A94B1E0AB1AB108C8
:1006A000C7CF843619F0893609F074C0F80157FEB7
:1006B0006AC061917191819191918F01E52DEF76E1
:1006C000DE2E97FF09C090958095709561957F4FBC
:1006D0008F4F9F4F6894D7F82AE030E0A4010E9422
:1006E0008E04C82EC818AC2C5D2CD6FE0CC0E89425
:1006F00050F8CB1440F4D4FE05C0D2FC03C05D2DED
:100700005E7E552EAB2C54FE98C0FE01EC0DF11D03
:100710008081803309F08AC0652D697E562E752D43
:100720007870372E53FC98C050FE92C0BC2CA41495
:1007300018F44C0CB42CBA1854FE94C0B70180E3E2
:1007400090E00E945E0452FE09C088E790E051FEEE
:1007500002C088E590E0B7010E945E04CB1408F463
:100760008DC0CA94D12C8FEFC81AD80AC80CD91CD6
:10077000D6018E916D01B70190E00E945E048C1449
:100780009D04B1F758CF61917191072E000C880B31
:10079000990B93CFD52CE894D4F82AE030E0853734
:1007A00039F1F52DF97FDF2E8037A9F058F488351F
:1007B000A9F08F36D9F0F701868197812F96E2E173
:1007C0000C9408058837B9F7D4FE02C06894D2F8B3
:1007D00020E130E00DC06894D4F8F6CF54FE03C099
:1007E0002F2F2660D22E20E132E002C028E030E038
:1007F000F801D7FE15C041915191619171914C87DB
:100800005D876E877F878F01A4016C857D858E85CE
:100810009F850E948E04C82EC818E894D7F863CF2D
:1008200081919191AC0170E060E0E9CF52FC02C08F
:10083000A39475CFA394A39472CF852D867809F4E1
:100840006ECFF6CFB70180E290E00E945E04A394E1
:10085000A414C0F3312C70CF342C3A18A41408F42B
:100860006BCFF8CF852D867809F478CF8BE251FED7
:1008700080E257FC8DE2B70190E06ECFB70180E3D4
:1008800090E00E945E04BA9469CF8FEF9FEF96CFFD
:10089000FC010590615070400110D8F7809590954B
:1008A0008E0F9F1F0895FC01615070400190011050
:1008B000D8F7809590958E0F9F1F08950F931F93E3
:1008C000CF93DF93182F092FEB018B8181FD09C096
:1008D0001FEF0FEF812F902FDF91CF911F910F917D
:1008E000089582FF14C02E813F818C819D8128173D
:1008F00039073CF4E881F981CF0101969983888317
:1009000010838E819F8101969F838E83E3CFE8853C
:10091000F985812F0995892BA1F3DACFFA01AA274E
:10092000283051F1203181F1E8946F936E7F6E5F32
:100930007F4F8F4F9F4FAF4FB1E03ED0B4E03CD0E0
:10094000670F781F891F9A1FA11D680F791F8A1FC3
:10095000911DA11D6A0F711D811D911DA11D20D02A
:1009600009F468943F912AE0269F11243019305DE4
:100970003193DEF6CF010895462F4770405D4193D5
:10098000B3E00FD0C9F7F6CF462F4F70405D4A3322
:1009900018F0495D31FD4052419302D0A9F7EACFEA
:1009A000B4E0A6959795879577956795BA95C9F719
:1009B00000976105710508959B01AC010A2E06940C
:1009C0005795479537952795BA95C9F7620F731FC5
:1009D000841F951FA01D08952F923F924F925F9202
:1009E0006F927F928F929F92AF92BF92CF92DF923F
:1009F000EF92FF920F931F93CF93DF93CDB7DEB7A4
:100A0000CA1BDB0B0FB6F894DEBF0FBECDBF099437
:100A10002A88398848885F846E847D848C849B848E
:100A2000AA84B984C884DF80EE80FD800C811B819C
:100A3000AA81B981CE0FD11D0FB6F894DEBF0FBECB
:0A0A4000CDBFED010895F894FFCF3B
:100A4A0004000E010F110F00000C0A090A0C000025
:100A5A0000060A120A06000048656A2068656A00EC
:100A6A0048656A20322025640A001F110A04040A14
:040A7A00111F000048
:00000001FF
